:0400000051EF00F0CC
:10000800FACF82F0FBCF83F0E9CF84F0EDED0FF06B
:10001800D8CF01F0E8CF02F0E0CF03F0FACF04F038
:10002800FBCF05F0E9CF06F0EACF07F0E1CF08F003
:10003800E2CF09F0D9CF0AF0DACF0BF0F3CF0CF00A
:10004800F4CF0DF0F6CF0EF0F7CF0FF0F8CF10F099
:10005800F5CF11F011C0F5FF10C0F8FF0FC0F7FF82
:100068000EC0F6FF0DC0F4FF0CC0F3FF0BC0DAFFA3
:100078000AC0D9FF09C0E2FF08C0E1FF07C0EAFFD4
:1000880006C0E9FF05C0FBFF04C0FAFF03C0E0FF9C
:0E00980002C0E8FF01C0D8FF10003EEF11F0DB
:1008000000E1085108090889084803530069006D90
:100810000070006C00650020004800490044002082
:100820000044006500760069006300650020004414
:100830000065006D006F00200028002D003E0020A4
:100840000031003800460034003500350030002902
:10085000003803410020004D006900630072006F02
:1008600000630068006900700020005400650063A8
:100870000068006E006F006C006F00670079002058
:100880000049006E0063002E0009022900010100EA
:10089000C032090400000203000000092111010018
:1008A00001221D00070581034000010705010340E7
:1008B00000010600FF0901A10119012940150126C7
:1008C000FF00750895408100190129409100C01270
:1008D00001000200000008D8043F000200010200ED
:1008E00001040309040004012205D8A411D0040165
:1008F00020511F0B0009D8A40BD000017D8F0401EB
:100900002151030AD8A402D0010E01D0000E3F6E7F
:100910000401226744D1040120511F0B020AD8A40C
:100920003ED1040124510F0B0009D8B438D1040181
:1009300024510F0B286E020E285CD8B030D1000174
:100940007851200AD8A42BD100017D8F040124BF47
:100950001FD0040124510F0B286E2850020D0001F6
:100960006C0EF324D96E0001000EF420DA6EDECF97
:100970002EF0DDCF2FF0040124510F0B286E2850EC
:10098000010D0001760EF324D96E0001000E1ED079
:10099000040124510F0B286E2850020D0001680E2F
:1009A000F324D96E0001000EF420DA6EDECF2EF0B3
:1009B000DDCF2FF0040124510F0B286E2850010DBC
:1009C0000001740EF324D96E0001000EF420DA6EDB
:1009D000DF502D6E2DB002D02E9401D02E84040154
:1009E00024BF0DD0040124510F0B286E2850020D96
:1009F00000016C0EF324D96E0001000E0CD004012E
:100A000024510F0B286E2850020D0001680EF324AC
:100A1000D96E0001000EF420DA6E2EC0DEFF2FC06A
:100A2000DDFF04012151030AD8A433D02EC0D9FF21
:100A30002FC0DAFFDFAE20D0040124BF0DD00401A7
:100A400024510F0B286E2850010D0001760EF3245F
:100A5000D96E0001000E0CD0040124510F0B286E3A
:100A60002850010D0001740EF324D96E0001000E10
:100A7000F420DA6E0001DF822EC0D9FF2FC0DAFF2A
:100A8000000EDB842EC0D9FF2FC0DAFF000EDB8EF4
:100A900086D0040E2E1A2EC0D9FF2FC0DAFFDFAE8B
:100AA0001BD02EC0D9FF2FC0DAFF7F0EDF162EC05D
:100AB000D9FF2FC0DAFF000EDB8C000E216E050E71
:100AC000206E2FC023F02EC022F0000E256E020EE5
:100AD000246EAFEC0FF006D02EC0D9FF2FC0DAFF86
:100AE000000EDB8C040E2E1A2DB206D02EC0D9FFBC
:100AF0002FC0DAFFDFAE35D0040124BF0DD00401D2
:100B000024510F0B286E2850010D0001760EF3249E
:100B1000D96E0001000E0CD0040124510F0B286E79
:100B20002850010D0001740EF324D96E0001000E4F
:100B3000F420DA6E0001DF922EC0D9FF2FC0DAFF59
:100B40003B0EDF16000E216E050E206E2FC023F027
:100B50002EC022F0000E256E020E246EAFEC0FF0B8
:100B600006D02EC0D9FF2FC0DAFF3B0EDF160401DE
:100B700024510F0B286E2850010D700E296E0F0E98
:100B80002A6EF3502926F4502A2229C02BF02AC0BD
:100B90002CF02BC0D9FF2CC0DAFFFE0EDF1612009E
:100BA000000173517211D8B413D072C0D9FF73C051
:100BB000DAFFDFAE04D00001986B982B02D0000161
:100BC000986B000198510001996F00019A6B06D053
:100BD000000E00019A6F000E0001996F00019A51FA
:100BE0009911D8A46FD00501050E0001916F050180
:100BF000400E0001906F000E0001936F200E000167
:100C0000926F000E0001956F400E0001946FB0ECE2
:100C100010F02ED08AB402D0010E01D0000E0001D7
:100C2000986F0001984798478A5000019819FB0B6C
:100C300098198A6E28D0810E0501406F81B802D0C4
:100C4000010E01D0000E0501416F0ED06FEC11F0C6
:100C5000370E0501406F69EC11F00009D8A4FBD7ED
:100C6000C3CF41F5C4CF42F5010E0001796F0BD01F
:100C700005010051370AD8B4E9D7B70AD8B4CAD7A2
:100C8000010AD8B4D8D70001796705D000C540F56E
:100C9000010E0001796F000E0001906F0501050E35
:100CA0000001926F0501000E0001916F400E0001DE
:100CB000936F010E46EC0AF0000190C072F0000143
:100CC00091C073F0000171517011D8B413D070C08D
:100CD000D9FF71C0DAFFDFAE04D00001986B982B0A
:100CE00002D00001986B0001985100019B6F000138
:100CF0009C6B06D0000E00019C6F000E00019B6FE4
:100D000000019C519B11D8A41ED000017951D8B488
:100D10001AD0010E0001906F0501050E0001926FBF
:100D20000501400E0001916F400E0001936F010E0E
:100D300046EC0AF0000190C070F0000191C071F023
:100D4000000E0001796F1200A09A000E6A6E000E6C
:100D5000686E000E706E0F0E0001916F710E000133
:100D6000906F000E0001936F000E0001926F000E55
:100D70000001956F010E0001946FB0EC10F0160E9B
:100D80006F6E9F0E6B6E7B0E696E000E0001986F8A
:100D900011D000019851040D0401000EF324D96E06
:100DA0000401040EF420DA6EDE6ADE6ADE6ADD6AB1
:100DB0000001982B070E00019865EBD76D8C000E93
:100DC0006E6E6D986D9C0DD06896000E00017D6F63
:100DD000000E0001636F000E0001656F000E000140
:100DE000646F68B6F1D7010E446E010E456E000EB9
:100DF000416E000E426E000E406E000E0001986FB4
:100E00003AD000019851020D0001680EF324D96E0A
:100E10000001000EF420DA6E000EDE6E000EDD6EB4
:100E200000019851020D00016C0EF324D96E0001EF
:100E3000000EF420DA6E000EDE6E000EDD6E000194
:100E40009851010D0001740EF324D96E0001000EBB
:100E5000F420DA6E000EDF6E00019851010D0001E2
:100E6000760EF324D96E0001000EF420DA6E000E27
:100E7000DF6E0001982B010E00019865C2D70401B6
:100E8000040E0001696F0401080E0001686F160E60
:100E9000706E040E0401036F200E0401026F080E31
:100EA0000401016F040E0401006F0401008F000EA5
:100EB0004A6E000E0001786F1200A09A000E6A6E52
:100EC000000E686E000E706E0F0E136E710E126EB5
:100ED000000E156E000E146E000E176E010E166ECB
:100EE00014EC11F0160E6F6E9F0E6B6E7B0E696E1A
:100EF000000E1A6E0FD01A50040D0401000EF324D8
:100F0000D96E0401040EF420DA6EDE6ADE6ADE6A4F
:100F1000DD6A1A2A070E1A64EED76D8C000E6E6E0B
:100F20006D986D9C0DD06896000E00017D6F000ECF
:100F30000001636F000E0001656F000E0001646F19
:100F400068B6F1D7010E446E010E456E000E416E7B
:100F5000000E426E000E406E000E1A6E35D01A5012
:100F6000020D0001680EF324D96E0001000EF4207A
:100F7000DA6E000EDE6E000EDD6E1A50020D0001FC
:100F80006C0EF324D96E0001000EF420DA6E000E10
:100F9000DE6E000EDD6E1A50010D0001740EF3249A
:100FA000D96E0001000EF420DA6E000EDF6E1A50CA
:100FB000010D0001760EF324D96E0001000EF4201D
:100FC000DA6E000EDF6E1A2A010E1A64C8D7040109
:100FD000040E0001696F0401080E0001686F160E0F
:100FE000706E040E0401036F200E0401026F080EE0
:100FF0000401016F040E0401006F0401008F000E54
:101000004A6E000E0001786F120004012051800A20
:10101000D8A499D0C00E00017D6F89D0080E0001C0
:101020007B6FCF0E00017A6F000E00017F6F120EF2
:1010300000017E6F88D00401226775D0040122511F
:10104000020D070EF324F66E080EF420F76E090069
:101050000001F5CF7AF00A000001F5CF7BF0020E17
:1010600000017A25126E000E00017B21136E12C062
:10107000F6FF13C0F7FFF86A070EF76403D0080005
:10108000F55005D0F6CFE1FFF7CFE2FFE7500001C2
:101090007E6F030E00017A25126E000E00017B2187
:1010A000136E12C0F6FF13C0F7FFF86A070EF7645D
:1010B00003D00800F55005D0F6CFE1FFF7CFE2FFEF
:1010C000E75000017F6F3FD0030E0401225DD8B0CE
:1010D0002AD004012251020D010EF324F66E080EEF
:1010E000F420F76E09000001F5CF7AF00A00000144
:1010F000F5CF7BF000017AC0F6FF00017BC0F7FF5F
:10110000F86A070EF76403D00800F55005D0F6CF53
:10111000E1FFF7CFE2FFE750126E125000017E6F41
:1011200000017F6B10D0000E00017D6F0CD0040118
:101130002351010AD8B472D7030AD8B47CD7010A64
:10114000D8B4C2D7F0D7120000017805D8B46DBA70
:1011500007D0000E686E69806988020E0001786F02
:1011600068B469A403D06894FDEC10F06DB285D02A
:1011700068B069A007D05DEC07F0A08A040E0001FA
:10118000786F689068B869A803D02AEC11F0689865
:1011900068AC18D069AC0ED0000E216E730E206EB4
:1011A000000E236E000E226E000E256E010E246EC0
:1011B000AFEC0FF0689C4650D8A44606466602D0B5
:1011C000D3EC0DF068BA69AA02D074EC10F068B2E2
:1011D00069A20FD07F0E216E2068000E236E000ED4
:1011E000226E000E256E010E246EAFEC0FF0000E85
:1011F0006A6E040E0001785DD8B069A63ED0000E7C
:101200000001816F36D068A638D06CCF4CF04C30DE
:10121000E832E8320F0B486E68964CB409D048505B
:10122000010D0001760EF324D96E0001000E08D0E6
:101230004850010D0001740EF324D96E0001000E18
:10124000F420DA6E0001DF70486603D02BEC0CF05E
:101250000ED0000E216E720E206E000E236E4C0E0C
:10126000226E000E256E000E246EAFEC0FF0000112
:10127000812B030E00018165C6D7A19A120020EED2
:1012800001F03850D9263950DA22DF50136E13504E
:101290000001645D000E00016559D8A064C013F020
:1012A00013500001645F000E0001655B000E126EBA
:1012B00014D01250010D0401280EF324D96E04013C
:1012C000040EF420DA6E60C0E1FF61C0E2FFDFCF00
:1012D000E7FF0001604B612B122A1350125CD8A06B
:1012E000E8D7000165516411D8B42BD020EE01F08D
:1012F0003A50D9263B50DA22080EDF6E20EE02F07B
:101300003A50D9263B50DA22280EDE6E040EDD6EEE
:1013100038C0D9FF39C0DAFFDFBC06D03AC0D9FFE8
:101320003BC0DAFF480E05D03AC0D9FF3BC0DAFF18
:10133000080EDF6E3AC0D9FF3BC0DAFF000EDB8E2D
:1013400024D020EE01F03A50D9263B50DA22080E84
:10135000DF6E20EE02F03A50D9263B50DA22200E02
:10136000DE6E040EDD6E3AC0D9FF3BC0DAFF040E1C
:10137000DF6E3AC0D9FF3BC0DAFF000EDB8E000102
:10138000639F436602D0D3EC0DF01200040120519C
:101390001F0B126E1204D8A478D004012451D8A4D3
:1013A00074D004012151060AD8B41FD027D04A04B2
:1013B000D8A424D0080E00017B6F9B0E00017A6F29
:1013C000000E00017F6F090E0AD0080E00017B6F2E
:1013D000B20E00017A6F000E00017F6F1D0E00013A
:1013E0007E6FC00E00017D6F09D004012351210AD8
:1013F000D8B4DDD7030AD8B4E8D7010A04012039EC
:10140000E832030B126E1204D8A43FD02AD0000E8B
:1014100000017B6F4E0E00017A6F000E00017F6F9E
:10142000010E00017E6FC10E13D0800E00017D6F92
:1014300023C44EF02AD0000E00017B6F4D0E000138
:101440007A6F000E00017F6F010E00017E6F810E2A
:1014500000017D6F1AD0800E00017D6F22C44DF017
:1014600014D004012151010AD8B40FD0030AD8B412
:10147000CED7010AD8B4DFD70A0AD8B406D0030AF7
:10148000D8B4D3D7010AD8B4E6D712000001946FBC
:1014900000019051D8B40AD000019451020D00010E
:1014A000680EF324D96E0001000E09D0000194519A
:1014B000020D00016C0EF324D96E0001000EF42021
:1014C000DA6E0001DECF95F00001DDCF96F000016D
:1014D00096519511D8A407D0000E0001916F000E0F
:1014E0000001906F4ED0000120EE02F000019551F6
:1014F000D92600019651DA22000191C0DEFF0001D9
:1015000092C0DDFF000120EE01F000019551D926C7
:1015100000019651DA22000193C0DFFF95C0D9FF88
:1015200096C0DAFF400EDF1695C0D9FF96C0DAFFED
:10153000000EDB8695C0D9FF96C0DAFF000EDB8E69
:1015400000019051D8B40AD000019451020D00015D
:10155000680EF324D96E0001000E09D000019451E9
:10156000020D00016C0EF324D96E0001000EF42070
:10157000DA6E040EDF1A000196C091F0000195C0EA
:1015800090F0120000017D8F0F0E136E710E126E1F
:10159000000E156E000E146E000E176E010E166E04
:1015A00014EC11F00401040E136E0401000E126E0F
:1015B000000E156E000E146E000E176E200E166EC5
:1015C00014EC11F06D8C000E286E19D02850010D0E
:1015D0000001740EF324D96E0001000EF420DA6EBF
:1015E000000EDF6E2850010D0001760EF324D96E37
:1015F0000001000EF420DA6E000EDF6E282A010EC4
:101600002864E4D7000E136E4B0E126E000E156E9A
:10161000000E146E000E176E010E166E14EC11F013
:101620006D9C0401040E0001696F0401080E0001A5
:10163000686F0401040E396E0401000E386E39C063
:101640003BF038C03AF022C44AF04A6602D0100E8D
:101650000FD0000E216E010E206E000E236E4A0E7A
:10166000226E000E256E010E246EAFEC0FF0200EE0
:101670000001786F12006D9800017DBF39D0000124
:1016800063AF0BD0020E476E426602D08AEC0EF0BA
:10169000000E456E000E446E65D020EE01F03A500B
:1016A000D9263B50DA22080EDF6E20EE02F03A50C7
:1016B000D9263B50DA22200EDE6E040EDD6E3AC0D3
:1016C000D9FF3BC0DAFF0C0EDF6E3AC0D9FF3BC03A
:1016D000DAFF000EDB8E68C0D9FF69C0DAFF040EA6
:1016E000DF6E68C0D9FF69C0DAFF000EDB8E3AD02A
:1016F000040120AF0FD0010E476E416602D08AEC84
:101700000EF0000E456E000E446E43662BD0D3ECF7
:101710000DF028D0020E476E20EE01F03A50D92687
:101720003B50DA22080EDF6E20EE02F03A50D92646
:101730003B50DA22200EDE6E040EDD6E3AC0D9FF79
:101740003BC0DAFF040EDF6E3AC0D9FF3BC0DAFFC0
:10175000000EDB8E000E456E000E446E436602D016
:10176000D3EC0DF0120004012039E832030B00091C
:10177000D8A470D04ED000017D8F080E0001786F84
:1017800069D005EC08F066D0C2EC0AF063D0000E18
:1017900000017B6F4A0E00017A6F15D070EC0DF0DE
:1017A00059D073EC04F056D004012451010D4B0EB6
:1017B000306E000E316EF3503026F450312230C0BE
:1017C0007AF031C07BF000017D81010E00017E6F57
:1017D00000017D8F3FD000017D8F04012451010D58
:1017E0004B0EF324D96E000EF420DA6E040122C4ED
:1017F000DFFF30D0000E216E020E206E000E236E31
:10180000000E226E000E256E000E246EAFEC0FF05F
:1018100021D004012151000AD8B4C0D7010AD8B49C
:10182000C0D7020AD8B4BDD7060AD8B4A4D7030AD1
:10183000D8B4A7D7010AD8B4DDD70F0AD8B4A7D730
:10184000010AD8B4A1D7030AD8B4AED7010AD8B4D4
:10185000C2D7070A12002D0E466E4CC032F0FD0EA4
:101860003216D8A45ED04CC032F0D89032323F0E3F
:1018700032163250040D0401000EF324386E0401B8
:10188000040EF420396E39C03BF038C03AF0040E33
:101890003A1A38C0D9FF39C0DAFFDF30E8320F0B0F
:1018A0000D0AD8A43BD0000E0001806F26D020EE98
:1018B00002F03850D9263950DA22DECF32F0DDCFAF
:1018C00033F032C0D9FF33C0DAFF00018051010D7F
:1018D0000401200EF324E16E0401040EF420E26EF4
:1018E000DFCFE7FF20EE02F03850D9263950DA2258
:1018F000DE2A000EDD220001802B070E000180652C
:10190000D6D720EE02F03850D9263950DA22200EF0
:10191000DE6E040EDD6E28EC0FF00CD023EC10F020
:1019200009D04CC032F0FD0E32163250040AD8B441
:1019300035EC0EF01200080E126E080E00017E5DEE
:10194000000E00017F59D8B00BD07EC012F049665E
:1019500002D0010E04D04904D8A402D0020E496E70
:10196000125000017E5F000E00017F5B000120EE3F
:1019700001F000016851D92600016951DA2212C034
:10198000DFFF0401040E3D6E0401280E3C6E0001D1
:101990007DA11ED03DD000017AC0F6FF00017BC0C2
:1019A000F7FFF86A3CC0D9FF3DC0DAFF070EF764C5
:1019B00003D00800F55005D0F6CFE1FFF7CFE2FFE6
:1019C000E750DF6E00017A4B7B2B3C4A3D2A120622
:1019D0001266E1D71FD000017AC0F6FF00017BC07C
:1019E000F7FFF86A3CC0D9FF3DC0DAFF070EF76485
:1019F00003D00800F55005D0F6CFE1FFF7CFE2FFA6
:101A0000E750DF6E00017A4B7B2B3C4A3D2A1206E1
:101A10001266E1D71200166E1250D8B409D01650D3
:101A2000020D0001680EF324D96E0001000E08D0EB
:101A30001650020D00016C0EF324D96E0001000E49
:101A4000F420DA6EDECF17F0DDCF18F01850171043
:101A5000D8A405D0000E136E000E126E40D020EEFA
:101A600002F01750D9261850DA2213C0DEFF14C036
:101A7000DDFF20EE01F01750D9261850DA2215C0EC
:101A8000DFFF17C0D9FF18C0DAFF400EDF1617C0FE
:101A9000D9FF18C0DAFF000EDB8617C0D9FF18C0C7
:101AA000DAFF000EDB8E1250D8B409D01650020DAA
:101AB0000001680EF324D96E0001000E08D0165004
:101AC000020D00016C0EF324D96E0001000EF4200B
:101AD000DA6E040EDF1A18C013F017C012F01200ED
:101AE000000E0401286F000E0401296F3FD0000191
:101AF0007D8F3F04D8A446D00401288343D0000141
:101B00007D8F40D000017D8F040124BF0DD00401E2
:101B100024510F0B126E1250020D00016C0EF324B3
:101B2000D96E0001000E0CD0040124510F0B126E6F
:101B30001250020D0001680EF324D96E0001000E50
:101B4000F420DA6EDECF13F0DDCF14F013C0D9FF2E
:101B500014C0DAFFDFAE16D013C0D9FF14C0DAFF0D
:101B6000DFA410D0010E0401286F0CD00401205115
:101B70001F0B000AD8B4BBD7010AD8B4C0D7030AD8
:101B8000D8B4C0D700017DAF0DD00401040E000110
:101B90007B6F0401280E00017A6F00017D81020E27
:101BA00000017E6F120044665FD0010E446E4566F0
:101BB0005BD0010E456E4750020AD8A418D0000130
:101BC00020EE01F000016851D92600016951DA22A6
:101BD000000EDF6E68C0D9FF69C0DAFF480EDF6E05
:101BE00068C0D9FF69C0DAFF000EDB8E3DD0470424
:101BF000D8A43AD0000E3E6E20EE01F03850D9261F
:101C00003950DA22080EDF6E20EE02F03850D92665
:101C10003950DA22200EDE6E040EDD6E38C0D9FF98
:101C200039C0DAFF040EDF6E38C0D9FF39C0DAFFE1
:101C3000000EDB8E010E3E6E20EE01F03A50D926EA
:101C40003B50DA22080EDF6E20EE02F03A50D92621
:101C50003B50DA22200EDE6E040EDD6E3AC0D9FF54
:101C60003BC0DAFF800EDF6E120068C0D9FF69C08A
:101C7000DAFF000EDFBC010E136E040E0001681BBC
:101C800000017851080AD8A40CD0040122517F0B1E
:101C90006E6E6E50D8B402D0100E01D0040E00014A
:101CA000786F4704D8A42ED0000120EE02F0000186
:101CB0006851D92600016951DA22280EDE6E040E21
:101CC000DD6E9BEC0CF04950020AD8A406D068C027
:101CD000D9FF69C0DAFF040E0DD0136606D068C0C4
:101CE000D9FF69C0DAFF480E05D068C0D9FF69C0C6
:101CF000DAFF080EDF6E68C0D9FF69C0DAFF000E98
:101D0000DB8E07D0000163AF02D00001639F000E9D
:101D1000476E1200000E416E000E426E4750020ADE
:101D2000D8A41DD020EE01F03A50D9263B50DA223B
:101D3000080EDF6E20EE02F03A50D9263B50DA2230
:101D4000280EDE6E040EDD6E3AC0D9FF3BC0DAFF0E
:101D5000480EDF6E3AC0D9FF3BC0DAFF27D0000142
:101D60007E510401265D00017F5104012759D8B03E
:101D700004D026C47EF027C47FF09BEC0CF0000159
:101D800020EE02F000016851D92600016951DA22E3
:101D9000280EDE6E040EDD6E68C0D9FF69C0DAFF62
:101DA000480EDF6E68C0D9FF69C0DAFF000EDB8E17
:101DB0001200176E0401040E196E0401000E186E55
:101DC0001250136E146AD890133614361750156ECD
:101DD000166AD89015361636D89015361636135022
:101DE000152614501622D89015361636D89015366A
:101DF0001636155018261650192218C0D9FF19C0CA
:101E0000DAFFDF9E126609D01750020D00016C0E3A
:101E1000F324D96E0001000E08D01750020D000106
:101E2000680EF324D96E0001000EF420DA6E18C09B
:101E3000DEFF19C0DDFF18C0D9FF19C0DAFFDF9C33
:101E400020EE04F01850D9261950DA22DF8C120047
:101E5000000E496E000E436E000E416E000E426E83
:101E6000000E3E6E000E476E68C0D9FF69C0DAFFF3
:101E70007F0EDF16040E0001681B68C0D9FF69C021
:101E8000DAFF7F0EDF16040E0001681B3AC0D9FF8F
:101E90003BC0DAFF7F0EDF16000E00017D6F000EE3
:101EA00000017F6F000E00017E6F000E0001636F66
:101EB000000E0001656F000E0001646FB3EC0BF0C3
:101EC000000E216E030E206E000E236E000E226E99
:101ED000000E256E000E246EAFEC0FF03BEC0BF005
:101EE00012000001946F000EC26E000EC06E000161
:101EF000D89090313C0BC26E90C092F00001923BA2
:101F0000F00E9217300E00019217000191510F0B45
:101F100000019211C16E94C092F00001D8909237E6
:101F20000001D8909237380E0001921794C093F0B8
:101F30000001933B0F0E9317070E0001931700014A
:101F40009451800B0001931100019211C06E0001A9
:101F500090AF03D09E9C9D8CF28CC280120012D058
:101F600071EC11F039D073EC11F036D072EC11F045
:101F700033D093EC10F030D0C6EC09F02DD074ECD7
:101F800011F02AD020C026F021C027F02750000AE7
:101F9000D8B404D07F0AD8B41BD01ED02650010A72
:101FA000D8B4E7D7030AD8B417D0010AD8B4E4D715
:101FB000060AD8B411D0770AD8B40ED0010AD8B422
:101FC000CFD7070AD8B4D2D7010AD8B4CCD704D017
:101FD0002650FF0AD8B4D3D712000600EACF85F006
:101FE000E1CF86F0E2CF87F0D9CF88F0DACF89F061
:101FF000F3CF8AF0F4CF8BF0F6CF8CF0F7CF8DF0E3
:10200000F8CF8EF0F5CF8FF0A4EC08F08FC0F5FF7D
:102010008EC0F8FF8DC0F7FF8CC0F6FF8BC0F4FFB9
:102020008AC0F3FF89C0DAFF88C0D9FF87C0E2FF0A
:1020300086C0E1FF85C0EAFF84C0E9FF83C0FBFFE3
:1020400082C0FAFF11004750020AD8A403D03FEC27
:1020500009F025D0000E476E3E661FD020EE01F03D
:102060003A50D9263B50DA22080EDF6E20EE02F0FD
:102070003A50D9263B50DA22200EDE6E040EDD6E79
:102080003AC0D9FF3BC0DAFF0C0EDF6E3AC0D9FF71
:102090003BC0DAFF000EDB8E02D0000E3E6E120057
:1020A0001F6E1AA405D0000E126E1F50D9EC0EF050
:1020B0001AA205D0010E126E1F50D9EC0EF01F505F
:1020C000010D700E1B6E0F0E1C6EF3501B26F4508C
:1020D0001C221BC01DF01CC01EF01DC0D9FF1EC05D
:1020E000DAFF1AC0DFFF120070A01BD0800E38C0CC
:1020F000D9FF39C0DAFFDF6213D0840E68C0D9FF80
:1021000069C0DAFFDF620CD038C0D9FF39C0DAFF0E
:102110000C0EDF6E38C0D9FF39C0DAFF000EDB8E3F
:102120007090689A1200000E0001716F000E00019D
:10213000706F1E0E1A6E010E50EC10F0000E126E33
:102140000501050E146E0501000E136E400E156E8E
:10215000010E0BEC0DF012C072F013C073F0120000
:10216000000191C097F0000190C096F00AD096C08F
:10217000D9FF97C0DAFF000192C0DFFF0001964B44
:10218000972B00019407D8A0950700019429D8B493
:102190009529D8B41200EBD70001786715D0000E4E
:1021A0006D6E000E696E160E6F6E9F0E6B6E7B0E5F
:1021B000696ED08EA28AA08AF28E01D06D866DA63D
:1021C000FDD7010E0001786F12000001956F0CD051
:1021D0000F0EC112000E8A6E000E936E9388938AC2
:1021E00092805FEC11F008D000019551000AD8B43C
:1021F000EFD7010AD8A4030A1200000E406E000EA9
:10220000216E740E206E000E236E000E226E000EE4
:10221000256E000E246EAFEC0FF06D92699401D024
:10222000689468A41200FCD713C019F012C018F00B
:1022300008D018C0D9FF19C0DAFF14C0DFFF184A50
:10224000192A1606D8A017061628D8B41728D8B405
:102250001200EFD7698468986D82010E406E000EFF
:10226000216E750E206E000E236E000E226E000E83
:10227000256E000E246EAFEC0FF0120000EE60F041
:10228000200EEE6AE806FDE100EE34F01B0EEE6A69
:10229000E806FDE1000EF86E00014FEF11F0000EB0
:1022A000E5EC10F0A4EC06F0CCEC10F0200E0001F0
:1022B000785DD8B06DB2FAD7D0EC05F0F7D7040E40
:1022C0000001906FFE0E0001916FE30E71EC0FF0B4
:1022D0001200C2A202D0010E01D0000E1200C28272
:0A22E000120012001200120012009A
:020000040020DA
:08000000FFFFFFFFFFFFFFFF00
:020000040030CA
:0E00000020023F1EFF8181FF0FC00FE00F4066
:00000001FF
